{
  "_format": "hh-sol-artifact-1",
  "contractName": "STMX",
  "sourceName": "contracts/STMX.sol",
  "abi": [
    {
      "inputs": [],
      "name": "InputLengthsDoNotMatch",
      "type": "error"
    },
    {
      "anonymous": false,
      "inputs": [
        {
          "indexed": true,
          "internalType": "address",
          "name": "owner",
          "type": "address"
        },
        {
          "indexed": true,
          "internalType": "address",
          "name": "spender",
          "type": "address"
        },
        {
          "indexed": false,
          "internalType": "uint256",
          "name": "value",
          "type": "uint256"
        }
      ],
      "name": "Approval",
      "type": "event"
    },
    {
      "anonymous": false,
      "inputs": [
        {
          "indexed": false,
          "internalType": "uint8",
          "name": "version",
          "type": "uint8"
        }
      ],
      "name": "Initialized",
      "type": "event"
    },
    {
      "anonymous": false,
      "inputs": [
        {
          "indexed": true,
          "internalType": "address",
          "name": "previousOwner",
          "type": "address"
        },
        {
          "indexed": true,
          "internalType": "address",
          "name": "newOwner",
          "type": "address"
        }
      ],
      "name": "OwnershipTransferred",
      "type": "event"
    },
    {
      "anonymous": false,
      "inputs": [
        {
          "indexed": true,
          "internalType": "address",
          "name": "from",
          "type": "address"
        },
        {
          "indexed": true,
          "internalType": "address",
          "name": "to",
          "type": "address"
        },
        {
          "indexed": false,
          "internalType": "uint256",
          "name": "value",
          "type": "uint256"
        }
      ],
      "name": "Transfer",
      "type": "event"
    },
    {
      "inputs": [
        {
          "internalType": "address",
          "name": "owner",
          "type": "address"
        },
        {
          "internalType": "address",
          "name": "spender",
          "type": "address"
        }
      ],
      "name": "allowance",
      "outputs": [
        {
          "internalType": "uint256",
          "name": "",
          "type": "uint256"
        }
      ],
      "stateMutability": "view",
      "type": "function"
    },
    {
      "inputs": [
        {
          "internalType": "address",
          "name": "spender",
          "type": "address"
        },
        {
          "internalType": "uint256",
          "name": "amount",
          "type": "uint256"
        }
      ],
      "name": "approve",
      "outputs": [
        {
          "internalType": "bool",
          "name": "",
          "type": "bool"
        }
      ],
      "stateMutability": "nonpayable",
      "type": "function"
    },
    {
      "inputs": [
        {
          "internalType": "address",
          "name": "account",
          "type": "address"
        }
      ],
      "name": "balanceOf",
      "outputs": [
        {
          "internalType": "uint256",
          "name": "",
          "type": "uint256"
        }
      ],
      "stateMutability": "view",
      "type": "function"
    },
    {
      "inputs": [],
      "name": "decimals",
      "outputs": [
        {
          "internalType": "uint8",
          "name": "",
          "type": "uint8"
        }
      ],
      "stateMutability": "view",
      "type": "function"
    },
    {
      "inputs": [
        {
          "internalType": "address",
          "name": "spender",
          "type": "address"
        },
        {
          "internalType": "uint256",
          "name": "subtractedValue",
          "type": "uint256"
        }
      ],
      "name": "decreaseAllowance",
      "outputs": [
        {
          "internalType": "bool",
          "name": "",
          "type": "bool"
        }
      ],
      "stateMutability": "nonpayable",
      "type": "function"
    },
    {
      "inputs": [
        {
          "internalType": "address",
          "name": "spender",
          "type": "address"
        },
        {
          "internalType": "uint256",
          "name": "addedValue",
          "type": "uint256"
        }
      ],
      "name": "increaseAllowance",
      "outputs": [
        {
          "internalType": "bool",
          "name": "",
          "type": "bool"
        }
      ],
      "stateMutability": "nonpayable",
      "type": "function"
    },
    {
      "inputs": [
        {
          "internalType": "string",
          "name": "name_",
          "type": "string"
        },
        {
          "internalType": "string",
          "name": "symbol_",
          "type": "string"
        },
        {
          "internalType": "uint256",
          "name": "initialSupply_",
          "type": "uint256"
        },
        {
          "internalType": "address",
          "name": "owner_",
          "type": "address"
        }
      ],
      "name": "initialize",
      "outputs": [],
      "stateMutability": "nonpayable",
      "type": "function"
    },
    {
      "inputs": [],
      "name": "name",
      "outputs": [
        {
          "internalType": "string",
          "name": "",
          "type": "string"
        }
      ],
      "stateMutability": "view",
      "type": "function"
    },
    {
      "inputs": [],
      "name": "owner",
      "outputs": [
        {
          "internalType": "address",
          "name": "",
          "type": "address"
        }
      ],
      "stateMutability": "view",
      "type": "function"
    },
    {
      "inputs": [],
      "name": "renounceOwnership",
      "outputs": [],
      "stateMutability": "nonpayable",
      "type": "function"
    },
    {
      "inputs": [],
      "name": "symbol",
      "outputs": [
        {
          "internalType": "string",
          "name": "",
          "type": "string"
        }
      ],
      "stateMutability": "view",
      "type": "function"
    },
    {
      "inputs": [],
      "name": "totalSupply",
      "outputs": [
        {
          "internalType": "uint256",
          "name": "",
          "type": "uint256"
        }
      ],
      "stateMutability": "view",
      "type": "function"
    },
    {
      "inputs": [
        {
          "internalType": "address",
          "name": "to",
          "type": "address"
        },
        {
          "internalType": "uint256",
          "name": "amount",
          "type": "uint256"
        }
      ],
      "name": "transfer",
      "outputs": [
        {
          "internalType": "bool",
          "name": "",
          "type": "bool"
        }
      ],
      "stateMutability": "nonpayable",
      "type": "function"
    },
    {
      "inputs": [
        {
          "internalType": "address",
          "name": "from",
          "type": "address"
        },
        {
          "internalType": "address",
          "name": "to",
          "type": "address"
        },
        {
          "internalType": "uint256",
          "name": "amount",
          "type": "uint256"
        }
      ],
      "name": "transferFrom",
      "outputs": [
        {
          "internalType": "bool",
          "name": "",
          "type": "bool"
        }
      ],
      "stateMutability": "nonpayable",
      "type": "function"
    },
    {
      "inputs": [
        {
          "internalType": "address",
          "name": "newOwner",
          "type": "address"
        }
      ],
      "name": "transferOwnership",
      "outputs": [],
      "stateMutability": "nonpayable",
      "type": "function"
    },
    {
      "inputs": [
        {
          "internalType": "address[]",
          "name": "recipients",
          "type": "address[]"
        },
        {
          "internalType": "uint256[]",
          "name": "values",
          "type": "uint256[]"
        }
      ],
      "name": "transfers",
      "outputs": [
        {
          "internalType": "bool",
          "name": "",
          "type": "bool"
        }
      ],
      "stateMutability": "nonpayable",
      "type": "function"
    }
  ],
  "bytecode": "0x608060405234801561001057600080fd5b5061170c806100206000396000f3fe608060405234801561001057600080fd5b50600436106101005760003560e01c8063715018a611610097578063a9059cbb11610066578063a9059cbb14610223578063bd3a13f614610236578063dd62ed3e14610249578063f2fde38b1461028f57600080fd5b8063715018a6146101d65780638da5cb5b146101e057806395d89b4114610208578063a457c2d71461021057600080fd5b8063313ce567116100d3578063313ce5671461016b578063395093511461017a578063523464121461018d57806370a08231146101a057600080fd5b806306fdde0314610105578063095ea7b31461012357806318160ddd1461014657806323b872dd14610158575b600080fd5b61010d6102a2565b60405161011a9190611072565b60405180910390f35b610136610131366004611107565b610334565b604051901515815260200161011a565b6067545b60405190815260200161011a565b610136610166366004611131565b61034e565b6040516012815260200161011a565b610136610188366004611107565b610372565b61013661019b36600461127a565b6103be565b61014a6101ae36600461133a565b73ffffffffffffffffffffffffffffffffffffffff1660009081526065602052604090205490565b6101de610460565b005b60335460405173ffffffffffffffffffffffffffffffffffffffff909116815260200161011a565b61010d610474565b61013661021e366004611107565b610483565b610136610231366004611107565b610559565b6101de6102443660046113ea565b610567565b61014a610257366004611468565b73ffffffffffffffffffffffffffffffffffffffff918216600090815260666020908152604080832093909416825291909152205490565b6101de61029d36600461133a565b610711565b6060606880546102b19061149b565b80601f01602080910402602001604051908101604052809291908181526020018280546102dd9061149b565b801561032a5780601f106102ff5761010080835404028352916020019161032a565b820191906000526020600020905b81548152906001019060200180831161030d57829003601f168201915b5050505050905090565b6000336103428185856107c8565b60019150505b92915050565b60003361035c85828561097b565b610367858585610a52565b506001949350505050565b33600081815260666020908152604080832073ffffffffffffffffffffffffffffffffffffffff8716845290915281205490919061034290829086906103b990879061151d565b6107c8565b600081518351146103fb576040517fb033fe4600000000000000000000000000000000000000000000000000000000815260040160405180910390fd5b60005b83518110156104565761044384828151811061041c5761041c611530565b602002602001015184838151811061043657610436611530565b6020026020010151610559565b508061044e8161155f565b9150506103fe565b5060019392505050565b610468610d05565b6104726000610d86565b565b6060606980546102b19061149b565b33600081815260666020908152604080832073ffffffffffffffffffffffffffffffffffffffff871684529091528120549091908381101561054c576040517f08c379a000000000000000000000000000000000000000000000000000000000815260206004820152602560248201527f45524332303a2064656372656173656420616c6c6f77616e63652062656c6f7760448201527f207a65726f00000000000000000000000000000000000000000000000000000060648201526084015b60405180910390fd5b61036782868684036107c8565b600033610342818585610a52565b600054610100900460ff16158080156105875750600054600160ff909116105b806105a15750303b1580156105a1575060005460ff166001145b61062d576040517f08c379a000000000000000000000000000000000000000000000000000000000815260206004820152602e60248201527f496e697469616c697a61626c653a20636f6e747261637420697320616c72656160448201527f647920696e697469616c697a65640000000000000000000000000000000000006064820152608401610543565b600080547fffffffffffffffffffffffffffffffffffffffffffffffffffffffffffffff00166001179055801561068b57600080547fffffffffffffffffffffffffffffffffffffffffffffffffffffffffffff00ff166101001790555b610693610dfd565b61069d8585610e9d565b6106a78284610f52565b801561070a57600080547fffffffffffffffffffffffffffffffffffffffffffffffffffffffffffff00ff169055604051600181527f7f26b83ff96e1f2b6a682f133852f6798a09c465da95921460cefb38474024989060200160405180910390a15b5050505050565b610719610d05565b73ffffffffffffffffffffffffffffffffffffffff81166107bc576040517f08c379a000000000000000000000000000000000000000000000000000000000815260206004820152602660248201527f4f776e61626c653a206e6577206f776e657220697320746865207a65726f206160448201527f64647265737300000000000000000000000000000000000000000000000000006064820152608401610543565b6107c581610d86565b50565b73ffffffffffffffffffffffffffffffffffffffff831661086a576040517f08c379a0000000000000000000000000000000000000000000000000000000008152602060048201526024808201527f45524332303a20617070726f76652066726f6d20746865207a65726f2061646460448201527f72657373000000000000000000000000000000000000000000000000000000006064820152608401610543565b73ffffffffffffffffffffffffffffffffffffffff821661090d576040517f08c379a000000000000000000000000000000000000000000000000000000000815260206004820152602260248201527f45524332303a20617070726f766520746f20746865207a65726f20616464726560448201527f73730000000000000000000000000000000000000000000000000000000000006064820152608401610543565b73ffffffffffffffffffffffffffffffffffffffff83811660008181526066602090815260408083209487168084529482529182902085905590518481527f8c5be1e5ebec7d5bd14f71427d1e84f3dd0314c0f7b2291e5b200ac8c7c3b925910160405180910390a3505050565b73ffffffffffffffffffffffffffffffffffffffff8381166000908152606660209081526040808320938616835292905220547fffffffffffffffffffffffffffffffffffffffffffffffffffffffffffffffff8114610a4c5781811015610a3f576040517f08c379a000000000000000000000000000000000000000000000000000000000815260206004820152601d60248201527f45524332303a20696e73756666696369656e7420616c6c6f77616e63650000006044820152606401610543565b610a4c84848484036107c8565b50505050565b73ffffffffffffffffffffffffffffffffffffffff8316610af5576040517f08c379a000000000000000000000000000000000000000000000000000000000815260206004820152602560248201527f45524332303a207472616e736665722066726f6d20746865207a65726f20616460448201527f64726573730000000000000000000000000000000000000000000000000000006064820152608401610543565b73ffffffffffffffffffffffffffffffffffffffff8216610b98576040517f08c379a000000000000000000000000000000000000000000000000000000000815260206004820152602360248201527f45524332303a207472616e7366657220746f20746865207a65726f206164647260448201527f65737300000000000000000000000000000000000000000000000000000000006064820152608401610543565b73ffffffffffffffffffffffffffffffffffffffff831660009081526065602052604090205481811015610c4e576040517f08c379a000000000000000000000000000000000000000000000000000000000815260206004820152602660248201527f45524332303a207472616e7366657220616d6f756e742065786365656473206260448201527f616c616e636500000000000000000000000000000000000000000000000000006064820152608401610543565b73ffffffffffffffffffffffffffffffffffffffff808516600090815260656020526040808220858503905591851681529081208054849290610c9290849061151d565b925050819055508273ffffffffffffffffffffffffffffffffffffffff168473ffffffffffffffffffffffffffffffffffffffff167fddf252ad1be2c89b69c2b068fc378daa952ba7f163c4a11628f55a4df523b3ef84604051610cf891815260200190565b60405180910390a3610a4c565b60335473ffffffffffffffffffffffffffffffffffffffff163314610472576040517f08c379a000000000000000000000000000000000000000000000000000000000815260206004820181905260248201527f4f776e61626c653a2063616c6c6572206973206e6f7420746865206f776e65726044820152606401610543565b6033805473ffffffffffffffffffffffffffffffffffffffff8381167fffffffffffffffffffffffff0000000000000000000000000000000000000000831681179093556040519116919082907f8be0079c531659141344cd1fd0a4f28419497f9722a3daafe3b4186f6b6457e090600090a35050565b600054610100900460ff16610e94576040517f08c379a000000000000000000000000000000000000000000000000000000000815260206004820152602b60248201527f496e697469616c697a61626c653a20636f6e7472616374206973206e6f74206960448201527f6e697469616c697a696e670000000000000000000000000000000000000000006064820152608401610543565b61047233610d86565b600054610100900460ff16610f34576040517f08c379a000000000000000000000000000000000000000000000000000000000815260206004820152602b60248201527f496e697469616c697a61626c653a20636f6e7472616374206973206e6f74206960448201527f6e697469616c697a696e670000000000000000000000000000000000000000006064820152608401610543565b6068610f4083826115e5565b506069610f4d82826115e5565b505050565b73ffffffffffffffffffffffffffffffffffffffff8216610fcf576040517f08c379a000000000000000000000000000000000000000000000000000000000815260206004820152601f60248201527f45524332303a206d696e7420746f20746865207a65726f2061646472657373006044820152606401610543565b8060676000828254610fe1919061151d565b909155505073ffffffffffffffffffffffffffffffffffffffff82166000908152606560205260408120805483929061101b90849061151d565b909155505060405181815273ffffffffffffffffffffffffffffffffffffffff8316906000907fddf252ad1be2c89b69c2b068fc378daa952ba7f163c4a11628f55a4df523b3ef9060200160405180910390a35050565b600060208083528351808285015260005b8181101561109f57858101830151858201604001528201611083565b5060006040828601015260407fffffffffffffffffffffffffffffffffffffffffffffffffffffffffffffffe0601f8301168501019250505092915050565b803573ffffffffffffffffffffffffffffffffffffffff8116811461110257600080fd5b919050565b6000806040838503121561111a57600080fd5b611123836110de565b946020939093013593505050565b60008060006060848603121561114657600080fd5b61114f846110de565b925061115d602085016110de565b9150604084013590509250925092565b7f4e487b7100000000000000000000000000000000000000000000000000000000600052604160045260246000fd5b604051601f82017fffffffffffffffffffffffffffffffffffffffffffffffffffffffffffffffe016810167ffffffffffffffff811182821017156111e3576111e361116d565b604052919050565b600067ffffffffffffffff8211156112055761120561116d565b5060051b60200190565b600082601f83011261122057600080fd5b81356020611235611230836111eb565b61119c565b82815260059290921b8401810191818101908684111561125457600080fd5b8286015b8481101561126f5780358352918301918301611258565b509695505050505050565b6000806040838503121561128d57600080fd5b823567ffffffffffffffff808211156112a557600080fd5b818501915085601f8301126112b957600080fd5b813560206112c9611230836111eb565b82815260059290921b840181019181810190898411156112e857600080fd5b948201945b8386101561130d576112fe866110de565b825294820194908201906112ed565b9650508601359250508082111561132357600080fd5b506113308582860161120f565b9150509250929050565b60006020828403121561134c57600080fd5b611355826110de565b9392505050565b600082601f83011261136d57600080fd5b813567ffffffffffffffff8111156113875761138761116d565b6113b860207fffffffffffffffffffffffffffffffffffffffffffffffffffffffffffffffe0601f8401160161119c565b8181528460208386010111156113cd57600080fd5b816020850160208301376000918101602001919091529392505050565b6000806000806080858703121561140057600080fd5b843567ffffffffffffffff8082111561141857600080fd5b6114248883890161135c565b9550602087013591508082111561143a57600080fd5b506114478782880161135c565b9350506040850135915061145d606086016110de565b905092959194509250565b6000806040838503121561147b57600080fd5b611484836110de565b9150611492602084016110de565b90509250929050565b600181811c908216806114af57607f821691505b6020821081036114e8577f4e487b7100000000000000000000000000000000000000000000000000000000600052602260045260246000fd5b50919050565b7f4e487b7100000000000000000000000000000000000000000000000000000000600052601160045260246000fd5b80820180821115610348576103486114ee565b7f4e487b7100000000000000000000000000000000000000000000000000000000600052603260045260246000fd5b60007fffffffffffffffffffffffffffffffffffffffffffffffffffffffffffffffff8203611590576115906114ee565b5060010190565b601f821115610f4d57600081815260208120601f850160051c810160208610156115be5750805b601f850160051c820191505b818110156115dd578281556001016115ca565b505050505050565b815167ffffffffffffffff8111156115ff576115ff61116d565b6116138161160d845461149b565b84611597565b602080601f83116001811461166657600084156116305750858301515b7fffffffffffffffffffffffffffffffffffffffffffffffffffffffffffffffff600386901b1c1916600185901b1785556115dd565b6000858152602081207fffffffffffffffffffffffffffffffffffffffffffffffffffffffffffffffe08616915b828110156116b357888601518255948401946001909101908401611694565b50858210156116ef57878501517fffffffffffffffffffffffffffffffffffffffffffffffffffffffffffffffff600388901b60f8161c191681555b5050505050600190811b0190555056fea164736f6c6343000810000a",
  "linkReferences": {},
  "deployedLinkReferences": {}
}